{
  "contractName": "specialNftContract",
  "abi": [
    {
      "inputs": [
        {
          "internalType": "uint256",
          "name": "_MaxSupply",
          "type": "uint256"
        },
        {
          "internalType": "uint256",
          "name": "_AdminLimit",
          "type": "uint256"
        },
        {
          "internalType": "uint256",
          "name": "_WhitelistLimit",
          "type": "uint256"
        },
        {
          "internalType": "uint256",
          "name": "_PerWalletLimit",
          "type": "uint256"
        },
        {
          "internalType": "bool",
          "name": "mintingStatus",
          "type": "bool"
        }
      ],
      "stateMutability": "nonpayable",
      "type": "constructor"
    },
    {
      "inputs": [],
      "name": "InvalidMetadataHash",
      "type": "error"
    },
    {
      "inputs": [],
      "name": "InvalidTokenURI",
      "type": "error"
    },
    {
      "anonymous": false,
      "inputs": [
        {
          "indexed": false,
          "internalType": "address",
          "name": "whitelistedAddress",
          "type": "address"
        },
        {
          "indexed": false,
          "internalType": "address",
          "name": "updatedBy",
          "type": "address"
        }
      ],
      "name": "AddedAdminAdddress",
      "type": "event"
    },
    {
      "anonymous": false,
      "inputs": [
        {
          "indexed": false,
          "internalType": "address",
          "name": "whitelistedAddress",
          "type": "address"
        },
        {
          "indexed": false,
          "internalType": "address",
          "name": "updatedBy",
          "type": "address"
        }
      ],
      "name": "AddedWhitelistAddress",
      "type": "event"
    },
    {
      "anonymous": false,
      "inputs": [
        {
          "indexed": true,
          "internalType": "address",
          "name": "owner",
          "type": "address"
        },
        {
          "indexed": true,
          "internalType": "address",
          "name": "approved",
          "type": "address"
        },
        {
          "indexed": true,
          "internalType": "uint256",
          "name": "tokenId",
          "type": "uint256"
        }
      ],
      "name": "Approval",
      "type": "event"
    },
    {
      "anonymous": false,
      "inputs": [
        {
          "indexed": true,
          "internalType": "address",
          "name": "owner",
          "type": "address"
        },
        {
          "indexed": true,
          "internalType": "address",
          "name": "operator",
          "type": "address"
        },
        {
          "indexed": false,
          "internalType": "bool",
          "name": "approved",
          "type": "bool"
        }
      ],
      "name": "ApprovalForAll",
      "type": "event"
    },
    {
      "anonymous": false,
      "inputs": [
        {
          "indexed": false,
          "internalType": "address",
          "name": "Minter",
          "type": "address"
        },
        {
          "indexed": false,
          "internalType": "uint256",
          "name": "NftId",
          "type": "uint256"
        },
        {
          "indexed": false,
          "internalType": "string",
          "name": "metadataHash",
          "type": "string"
        }
      ],
      "name": "NftMinted",
      "type": "event"
    },
    {
      "anonymous": false,
      "inputs": [
        {
          "indexed": true,
          "internalType": "address",
          "name": "previousOwner",
          "type": "address"
        },
        {
          "indexed": true,
          "internalType": "address",
          "name": "newOwner",
          "type": "address"
        }
      ],
      "name": "OwnershipTransferred",
      "type": "event"
    },
    {
      "anonymous": false,
      "inputs": [
        {
          "indexed": false,
          "internalType": "string",
          "name": "baseURI",
          "type": "string"
        },
        {
          "indexed": false,
          "internalType": "address",
          "name": "addedBy",
          "type": "address"
        }
      ],
      "name": "SetBaseURI",
      "type": "event"
    },
    {
      "anonymous": false,
      "inputs": [
        {
          "indexed": true,
          "internalType": "address",
          "name": "from",
          "type": "address"
        },
        {
          "indexed": true,
          "internalType": "address",
          "name": "to",
          "type": "address"
        },
        {
          "indexed": true,
          "internalType": "uint256",
          "name": "tokenId",
          "type": "uint256"
        }
      ],
      "name": "Transfer",
      "type": "event"
    },
    {
      "inputs": [],
      "name": "AdminLimit",
      "outputs": [
        {
          "internalType": "uint256",
          "name": "",
          "type": "uint256"
        }
      ],
      "stateMutability": "view",
      "type": "function"
    },
    {
      "inputs": [],
      "name": "AdminMinting",
      "outputs": [
        {
          "internalType": "bool",
          "name": "",
          "type": "bool"
        }
      ],
      "stateMutability": "view",
      "type": "function"
    },
    {
      "inputs": [],
      "name": "BaseURI",
      "outputs": [
        {
          "internalType": "string",
          "name": "",
          "type": "string"
        }
      ],
      "stateMutability": "view",
      "type": "function"
    },
    {
      "inputs": [
        {
          "internalType": "address",
          "name": "",
          "type": "address"
        }
      ],
      "name": "CheckAdminAddress",
      "outputs": [
        {
          "internalType": "bool",
          "name": "",
          "type": "bool"
        }
      ],
      "stateMutability": "view",
      "type": "function"
    },
    {
      "inputs": [
        {
          "internalType": "address",
          "name": "",
          "type": "address"
        }
      ],
      "name": "CheckNftsOnPerWalletAddress",
      "outputs": [
        {
          "internalType": "uint256",
          "name": "",
          "type": "uint256"
        }
      ],
      "stateMutability": "view",
      "type": "function"
    },
    {
      "inputs": [
        {
          "internalType": "address",
          "name": "",
          "type": "address"
        }
      ],
      "name": "CheckWhitelistAddress",
      "outputs": [
        {
          "internalType": "bool",
          "name": "",
          "type": "bool"
        }
      ],
      "stateMutability": "view",
      "type": "function"
    },
    {
      "inputs": [],
      "name": "ForAllFunctions",
      "outputs": [
        {
          "internalType": "bool",
          "name": "",
          "type": "bool"
        }
      ],
      "stateMutability": "view",
      "type": "function"
    },
    {
      "inputs": [],
      "name": "MaxSupply",
      "outputs": [
        {
          "internalType": "uint256",
          "name": "",
          "type": "uint256"
        }
      ],
      "stateMutability": "view",
      "type": "function"
    },
    {
      "inputs": [],
      "name": "MintingStatus",
      "outputs": [
        {
          "internalType": "bool",
          "name": "",
          "type": "bool"
        }
      ],
      "stateMutability": "view",
      "type": "function"
    },
    {
      "inputs": [],
      "name": "PerWalletLimit",
      "outputs": [
        {
          "internalType": "uint256",
          "name": "",
          "type": "uint256"
        }
      ],
      "stateMutability": "view",
      "type": "function"
    },
    {
      "inputs": [],
      "name": "PublicLimit",
      "outputs": [
        {
          "internalType": "uint256",
          "name": "",
          "type": "uint256"
        }
      ],
      "stateMutability": "view",
      "type": "function"
    },
    {
      "inputs": [],
      "name": "PublicSales",
      "outputs": [
        {
          "internalType": "bool",
          "name": "",
          "type": "bool"
        }
      ],
      "stateMutability": "view",
      "type": "function"
    },
    {
      "inputs": [],
      "name": "RemainingMaxSupply",
      "outputs": [
        {
          "internalType": "uint256",
          "name": "",
          "type": "uint256"
        }
      ],
      "stateMutability": "view",
      "type": "function"
    },
    {
      "inputs": [],
      "name": "WhiteListMinting",
      "outputs": [
        {
          "internalType": "bool",
          "name": "",
          "type": "bool"
        }
      ],
      "stateMutability": "view",
      "type": "function"
    },
    {
      "inputs": [],
      "name": "WhitelistLimit",
      "outputs": [
        {
          "internalType": "uint256",
          "name": "",
          "type": "uint256"
        }
      ],
      "stateMutability": "view",
      "type": "function"
    },
    {
      "inputs": [
        {
          "internalType": "address",
          "name": "to",
          "type": "address"
        },
        {
          "internalType": "uint256",
          "name": "tokenId",
          "type": "uint256"
        }
      ],
      "name": "approve",
      "outputs": [],
      "stateMutability": "nonpayable",
      "type": "function"
    },
    {
      "inputs": [
        {
          "internalType": "address",
          "name": "owner",
          "type": "address"
        }
      ],
      "name": "balanceOf",
      "outputs": [
        {
          "internalType": "uint256",
          "name": "",
          "type": "uint256"
        }
      ],
      "stateMutability": "view",
      "type": "function"
    },
    {
      "inputs": [
        {
          "internalType": "uint256",
          "name": "tokenId",
          "type": "uint256"
        }
      ],
      "name": "getApproved",
      "outputs": [
        {
          "internalType": "address",
          "name": "",
          "type": "address"
        }
      ],
      "stateMutability": "view",
      "type": "function"
    },
    {
      "inputs": [
        {
          "internalType": "address",
          "name": "owner",
          "type": "address"
        },
        {
          "internalType": "address",
          "name": "operator",
          "type": "address"
        }
      ],
      "name": "isApprovedForAll",
      "outputs": [
        {
          "internalType": "bool",
          "name": "",
          "type": "bool"
        }
      ],
      "stateMutability": "view",
      "type": "function"
    },
    {
      "inputs": [],
      "name": "name",
      "outputs": [
        {
          "internalType": "string",
          "name": "",
          "type": "string"
        }
      ],
      "stateMutability": "view",
      "type": "function"
    },
    {
      "inputs": [],
      "name": "owner",
      "outputs": [
        {
          "internalType": "address",
          "name": "",
          "type": "address"
        }
      ],
      "stateMutability": "view",
      "type": "function"
    },
    {
      "inputs": [
        {
          "internalType": "uint256",
          "name": "tokenId",
          "type": "uint256"
        }
      ],
      "name": "ownerOf",
      "outputs": [
        {
          "internalType": "address",
          "name": "",
          "type": "address"
        }
      ],
      "stateMutability": "view",
      "type": "function"
    },
    {
      "inputs": [],
      "name": "renounceOwnership",
      "outputs": [],
      "stateMutability": "nonpayable",
      "type": "function"
    },
    {
      "inputs": [
        {
          "internalType": "address",
          "name": "from",
          "type": "address"
        },
        {
          "internalType": "address",
          "name": "to",
          "type": "address"
        },
        {
          "internalType": "uint256",
          "name": "tokenId",
          "type": "uint256"
        }
      ],
      "name": "safeTransferFrom",
      "outputs": [],
      "stateMutability": "nonpayable",
      "type": "function"
    },
    {
      "inputs": [
        {
          "internalType": "address",
          "name": "from",
          "type": "address"
        },
        {
          "internalType": "address",
          "name": "to",
          "type": "address"
        },
        {
          "internalType": "uint256",
          "name": "tokenId",
          "type": "uint256"
        },
        {
          "internalType": "bytes",
          "name": "data",
          "type": "bytes"
        }
      ],
      "name": "safeTransferFrom",
      "outputs": [],
      "stateMutability": "nonpayable",
      "type": "function"
    },
    {
      "inputs": [
        {
          "internalType": "address",
          "name": "operator",
          "type": "address"
        },
        {
          "internalType": "bool",
          "name": "approved",
          "type": "bool"
        }
      ],
      "name": "setApprovalForAll",
      "outputs": [],
      "stateMutability": "nonpayable",
      "type": "function"
    },
    {
      "inputs": [
        {
          "internalType": "uint256",
          "name": "",
          "type": "uint256"
        }
      ],
      "name": "storeNFTInfo",
      "outputs": [
        {
          "internalType": "string",
          "name": "Name",
          "type": "string"
        },
        {
          "internalType": "string",
          "name": "MetaDataHash",
          "type": "string"
        }
      ],
      "stateMutability": "view",
      "type": "function"
    },
    {
      "inputs": [],
      "name": "symbol",
      "outputs": [
        {
          "internalType": "string",
          "name": "",
          "type": "string"
        }
      ],
      "stateMutability": "view",
      "type": "function"
    },
    {
      "inputs": [
        {
          "internalType": "uint256",
          "name": "index",
          "type": "uint256"
        }
      ],
      "name": "tokenByIndex",
      "outputs": [
        {
          "internalType": "uint256",
          "name": "",
          "type": "uint256"
        }
      ],
      "stateMutability": "view",
      "type": "function"
    },
    {
      "inputs": [
        {
          "internalType": "address",
          "name": "owner",
          "type": "address"
        },
        {
          "internalType": "uint256",
          "name": "index",
          "type": "uint256"
        }
      ],
      "name": "tokenOfOwnerByIndex",
      "outputs": [
        {
          "internalType": "uint256",
          "name": "",
          "type": "uint256"
        }
      ],
      "stateMutability": "view",
      "type": "function"
    },
    {
      "inputs": [],
      "name": "totalSupply",
      "outputs": [
        {
          "internalType": "uint256",
          "name": "",
          "type": "uint256"
        }
      ],
      "stateMutability": "view",
      "type": "function"
    },
    {
      "inputs": [
        {
          "internalType": "address",
          "name": "from",
          "type": "address"
        },
        {
          "internalType": "address",
          "name": "to",
          "type": "address"
        },
        {
          "internalType": "uint256",
          "name": "tokenId",
          "type": "uint256"
        }
      ],
      "name": "transferFrom",
      "outputs": [],
      "stateMutability": "nonpayable",
      "type": "function"
    },
    {
      "inputs": [
        {
          "internalType": "address",
          "name": "newOwner",
          "type": "address"
        }
      ],
      "name": "transferOwnership",
      "outputs": [],
      "stateMutability": "nonpayable",
      "type": "function"
    },
    {
      "inputs": [
        {
          "internalType": "string",
          "name": "_BaseURI",
          "type": "string"
        }
      ],
      "name": "updateBaseURi",
      "outputs": [],
      "stateMutability": "nonpayable",
      "type": "function"
    },
    {
      "inputs": [
        {
          "internalType": "address",
          "name": "_Address",
          "type": "address"
        }
      ],
      "name": "ActiveAdminAddress",
      "outputs": [],
      "stateMutability": "nonpayable",
      "type": "function"
    },
    {
      "inputs": [
        {
          "internalType": "address",
          "name": "_Address",
          "type": "address"
        }
      ],
      "name": "InactiveAdminAddress",
      "outputs": [],
      "stateMutability": "nonpayable",
      "type": "function"
    },
    {
      "inputs": [
        {
          "internalType": "address",
          "name": "_Address",
          "type": "address"
        }
      ],
      "name": "ActiveWhiteListAddress",
      "outputs": [],
      "stateMutability": "nonpayable",
      "type": "function"
    },
    {
      "inputs": [
        {
          "internalType": "address",
          "name": "_Address",
          "type": "address"
        }
      ],
      "name": "InactiveWhiteListAddress",
      "outputs": [],
      "stateMutability": "nonpayable",
      "type": "function"
    },
    {
      "inputs": [],
      "name": "ActiveAdminMinting",
      "outputs": [],
      "stateMutability": "nonpayable",
      "type": "function"
    },
    {
      "inputs": [],
      "name": "ActiveWhiteListMinting",
      "outputs": [],
      "stateMutability": "nonpayable",
      "type": "function"
    },
    {
      "inputs": [],
      "name": "ActivePublicSales",
      "outputs": [],
      "stateMutability": "nonpayable",
      "type": "function"
    },
    {
      "inputs": [],
      "name": "UnpausedMintingStatus",
      "outputs": [],
      "stateMutability": "nonpayable",
      "type": "function"
    },
    {
      "inputs": [],
      "name": "PausedMintingStatus",
      "outputs": [],
      "stateMutability": "nonpayable",
      "type": "function"
    },
    {
      "inputs": [],
      "name": "UnpausedAllFunctions",
      "outputs": [],
      "stateMutability": "nonpayable",
      "type": "function"
    },
    {
      "inputs": [],
      "name": "PausedAllFunctions",
      "outputs": [],
      "stateMutability": "nonpayable",
      "type": "function"
    },
    {
      "inputs": [
        {
          "internalType": "uint256",
          "name": "tokenId",
          "type": "uint256"
        },
        {
          "internalType": "string",
          "name": "name",
          "type": "string"
        },
        {
          "internalType": "string",
          "name": "metaDataHash",
          "type": "string"
        }
      ],
      "name": "adminMinting",
      "outputs": [],
      "stateMutability": "nonpayable",
      "type": "function"
    },
    {
      "inputs": [
        {
          "internalType": "uint256",
          "name": "tokenId",
          "type": "uint256"
        },
        {
          "internalType": "string",
          "name": "name",
          "type": "string"
        },
        {
          "internalType": "string",
          "name": "metaDataHash",
          "type": "string"
        }
      ],
      "name": "whitelistMinting",
      "outputs": [],
      "stateMutability": "nonpayable",
      "type": "function"
    },
    {
      "inputs": [
        {
          "internalType": "uint256",
          "name": "tokenId",
          "type": "uint256"
        },
        {
          "internalType": "string",
          "name": "name",
          "type": "string"
        },
        {
          "internalType": "string",
          "name": "metaDataHash",
          "type": "string"
        }
      ],
      "name": "publicMinting",
      "outputs": [],
      "stateMutability": "nonpayable",
      "type": "function"
    },
    {
      "inputs": [
        {
          "internalType": "uint256",
          "name": "tokenId",
          "type": "uint256"
        }
      ],
      "name": "tokenURI",
      "outputs": [
        {
          "internalType": "string",
          "name": "",
          "type": "string"
        }
      ],
      "stateMutability": "view",
      "type": "function"
    },
    {
      "inputs": [
        {
          "internalType": "bytes4",
          "name": "interfaceId",
          "type": "bytes4"
        }
      ],
      "name": "supportsInterface",
      "outputs": [
        {
          "internalType": "bool",
          "name": "",
          "type": "bool"
        }
      ],
      "stateMutability": "view",
      "type": "function"
    }
  ],
  "bytecode": "0x60806040526001601660046101000a81548160ff0219169083151502179055503480156200002c57600080fd5b506040516200644338038062006443833981810160405281019062000052919062000394565b6040518060400160405280600981526020017f4945432d546f6b656e00000000000000000000000000000000000000000000008152506040518060400160405280600381526020017f49455400000000000000000000000000000000000000000000000000000000008152508160009080519060200190620000d6929190620002b6565b508060019080519060200190620000ef929190620002b6565b5050506200011262000106620001e860201b60201c565b620001f060201b60201c565b84600c81905550836010819055508260128190555081600f81905550601254601054600c546200014391906200050d565b6200014f91906200050d565b60148190555080601660036101000a81548160ff021916908315150217905550604051806060016040528060228152602001620064216022913960179080519060200190620001a0929190620002b6565b507f1f385d9cd3e76e1eb420621360e7a3dfb0b48750c4569e5326652de603794643601733604051620001d5929190620004b3565b60405180910390a150505050506200065a565b600033905090565b6000600b60009054906101000a900473ffffffffffffffffffffffffffffffffffffffff16905081600b60006101000a81548173ffffffffffffffffffffffffffffffffffffffff021916908373ffffffffffffffffffffffffffffffffffffffff1602179055508173ffffffffffffffffffffffffffffffffffffffff168173ffffffffffffffffffffffffffffffffffffffff167f8be0079c531659141344cd1fd0a4f28419497f9722a3daafe3b4186f6b6457e060405160405180910390a35050565b828054620002c49062000592565b90600052602060002090601f016020900481019282620002e8576000855562000334565b82601f106200030357805160ff191683800117855562000334565b8280016001018555821562000334579182015b828111156200033357825182559160200191906001019062000316565b5b50905062000343919062000347565b5090565b5b808211156200036257600081600090555060010162000348565b5090565b600081519050620003778162000626565b92915050565b6000815190506200038e8162000640565b92915050565b600080600080600060a08688031215620003ad57600080fd5b6000620003bd888289016200037d565b9550506020620003d0888289016200037d565b9450506040620003e3888289016200037d565b9350506060620003f6888289016200037d565b9250506080620004098882890162000366565b9150509295509295909350565b620004218162000548565b82525050565b60008154620004368162000592565b620004428186620004fc565b945060018216600081146200046057600181146200047357620004aa565b60ff1983168652602086019350620004aa565b6200047e85620004e7565b60005b83811015620004a25781548189015260018201915060208101905062000481565b808801955050505b50505092915050565b60006040820190508181036000830152620004cf818562000427565b9050620004e0602083018462000416565b9392505050565b60008190508160005260206000209050919050565b600082825260208201905092915050565b60006200051a8262000588565b9150620005278362000588565b9250828210156200053d576200053c620005c8565b5b828203905092915050565b6000620005558262000568565b9050919050565b60008115159050919050565b600073ffffffffffffffffffffffffffffffffffffffff82169050919050565b6000819050919050565b60006002820490506001821680620005ab57607f821691505b60208210811415620005c257620005c1620005f7565b5b50919050565b7f4e487b7100000000000000000000000000000000000000000000000000000000600052601160045260246000fd5b7f4e487b7100000000000000000000000000000000000000000000000000000000600052602260045260246000fd5b62000631816200055c565b81146200063d57600080fd5b50565b6200064b8162000588565b81146200065757600080fd5b50565b615db7806200066a6000396000f3fe608060405234801561001057600080fd5b50600436106102d65760003560e01c80636d31024e11610182578063bb1765e2116100e9578063d50b876a116100a2578063e985e9c51161007c578063e985e9c514610860578063eb895f1a14610890578063f2fde38b1461089a578063ffcc43c4146108b6576102d6565b8063d50b876a14610808578063e4d9842c14610812578063e92a3e8814610842576102d6565b8063bb1765e214610758578063c1888a2314610774578063c3d9bbd814610792578063c7e044f1146107b0578063c87b56dd146107ce578063cd1d6ac6146107fe576102d6565b806396c0d48b1161013b57806396c0d48b146106ae578063a22cb465146106ca578063a7ca7a8f146106e6578063b23dbe4e14610702578063b36c12841461071e578063b88d4fde1461073c576102d6565b80636d31024e1461060057806370a082311461061c578063715018a61461064c578063762ab910146106565780638da5cb5b1461067257806395d89b4114610690576102d6565b80633711fca4116102415780634c278b2c116101fa57806360a20a60116101d457806360a20a60146105a05780636352211e146105aa57806365599b07146105da578063689833dd146105e4576102d6565b80634c278b2c146105345780634f6ccce714610552578063559f0d5914610582576102d6565b80633711fca41461049a57806339363867146104a45780633afafa8c146104c057806342842e0e146104ca57806342e9ea81146104e657806349f7cf3914610504576102d6565b806323b872dd1161029357806323b872dd146103b15780632a587fae146103cd5780632c5781e4146103eb5780632f745c591461041c5780633240e5c51461044c5780633357e5801461046a576102d6565b806301ffc9a7146102db578063034d9f351461030b57806306fdde0314610329578063081812fc14610347578063095ea7b31461037757806318160ddd14610393575b600080fd5b6102f560048036038101906102f09190614304565b6108d4565b6040516103029190614b98565b60405180910390f35b6103136108e6565b6040516103209190614b98565b60405180910390f35b6103316108f9565b60405161033e9190614bb3565b60405180910390f35b610361600480360381019061035c9190614397565b61098b565b60405161036e9190614aca565b60405180910390f35b610391600480360381019061038c91906142c8565b6109d1565b005b61039b610ae9565b6040516103a8919061509c565b60405180910390f35b6103cb60048036038101906103c691906141c2565b610af6565b005b6103d5610b56565b6040516103e29190614b98565b60405180910390f35b61040560048036038101906104009190614397565b610b69565b604051610413929190614bd5565b60405180910390f35b610436600480360381019061043191906142c8565b610c9d565b604051610443919061509c565b60405180910390f35b610454610d42565b604051610461919061509c565b60405180910390f35b610484600480360381019061047f919061415d565b610d48565b604051610491919061509c565b60405180910390f35b6104a2610d60565b005b6104be60048036038101906104b99190614356565b610d85565b005b6104c8610ec2565b005b6104e460048036038101906104df91906141c2565b610f3e565b005b6104ee610f5e565b6040516104fb9190614b98565b60405180910390f35b61051e6004803603810190610519919061415d565b610f71565b60405161052b9190614b98565b60405180910390f35b61053c610f91565b604051610549919061509c565b60405180910390f35b61056c60048036038101906105679190614397565b610f97565b604051610579919061509c565b60405180910390f35b61058a61102e565b6040516105979190614b98565b60405180910390f35b6105a8611041565b005b6105c460048036038101906105bf9190614397565b6110bd565b6040516105d19190614aca565b60405180910390f35b6105e261116f565b005b6105fe60048036038101906105f9919061415d565b611221565b005b61061a6004803603810190610615919061415d565b611318565b005b6106366004803603810190610631919061415d565b611516565b604051610643919061509c565b60405180910390f35b6106546115ce565b005b610670600480360381019061066b91906143c0565b6115e2565b005b61067a611b0e565b6040516106879190614aca565b60405180910390f35b610698611b38565b6040516106a59190614bb3565b60405180910390f35b6106c860048036038101906106c3919061415d565b611bca565b005b6106e460048036038101906106df919061428c565b611cc1565b005b61070060048036038101906106fb91906143c0565b611cd7565b005b61071c600480360381019061071791906143c0565b612116565b005b610726612642565b604051610733919061509c565b60405180910390f35b61075660048036038101906107519190614211565b612648565b005b610772600480360381019061076d919061415d565b6126aa565b005b61077c6128a8565b604051610789919061509c565b60405180910390f35b61079a6128ae565b6040516107a7919061509c565b60405180910390f35b6107b86128b4565b6040516107c59190614b98565b60405180910390f35b6107e860048036038101906107e39190614397565b6128c7565b6040516107f59190614bb3565b60405180910390f35b61080661295e565b005b610810612a10565b005b61082c6004803603810190610827919061415d565b612b22565b6040516108399190614b98565b60405180910390f35b61084a612b42565b604051610857919061509c565b60405180910390f35b61087a60048036038101906108759190614186565b612b48565b6040516108879190614b98565b60405180910390f35b610898612bdc565b005b6108b460048036038101906108af919061415d565b612c01565b005b6108be612c85565b6040516108cb9190614bb3565b60405180910390f35b60006108df82612d13565b9050919050565b601660039054906101000a900460ff1681565b606060008054610908906152d6565b80601f0160208091040260200160405190810160405280929190818152602001828054610934906152d6565b80156109815780601f1061095657610100808354040283529160200191610981565b820191906000526020600020905b81548152906001019060200180831161096457829003601f168201915b5050505050905090565b600061099682612d8d565b6004600083815260200190815260200160002060009054906101000a900473ffffffffffffffffffffffffffffffffffffffff169050919050565b60006109dc826110bd565b90508073ffffffffffffffffffffffffffffffffffffffff168373ffffffffffffffffffffffffffffffffffffffff161415610a4d576040517f08c379a0000000000000000000000000000000000000000000000000000000008152600401610a4490614fdc565b60405180910390fd5b8073ffffffffffffffffffffffffffffffffffffffff16610a6c612dd8565b73ffffffffffffffffffffffffffffffffffffffff161480610a9b5750610a9a81610a95612dd8565b612b48565b5b610ada576040517f08c379a0000000000000000000000000000000000000000000000000000000008152600401610ad190614f1c565b60405180910390fd5b610ae48383612de0565b505050565b6000600880549050905090565b610b07610b01612dd8565b82612e99565b610b46576040517f08c379a0000000000000000000000000000000000000000000000000000000008152600401610b3d9061505c565b60405180910390fd5b610b51838383612f2e565b505050565b601660029054906101000a900460ff1681565b6018602052806000526040600020600091509050806000018054610b8c906152d6565b80601f0160208091040260200160405190810160405280929190818152602001828054610bb8906152d6565b8015610c055780601f10610bda57610100808354040283529160200191610c05565b820191906000526020600020905b815481529060010190602001808311610be857829003601f168201915b505050505090806001018054610c1a906152d6565b80601f0160208091040260200160405190810160405280929190818152602001828054610c46906152d6565b8015610c935780601f10610c6857610100808354040283529160200191610c93565b820191906000526020600020905b815481529060010190602001808311610c7657829003601f168201915b5050505050905082565b6000610ca883611516565b8210610ce9576040517f08c379a0000000000000000000000000000000000000000000000000000000008152600401610ce090614c5c565b60405180910390fd5b600660008473ffffffffffffffffffffffffffffffffffffffff1673ffffffffffffffffffffffffffffffffffffffff168152602001908152602001600020600083815260200190815260200160002054905092915050565b60145481565b601b6020528060005260406000206000915090505481565b610d68613195565b6000601660046101000a81548160ff021916908315150217905550565b60011515601660049054906101000a900460ff16151514610ddb576040517f08c379a0000000000000000000000000000000000000000000000000000000008152600401610dd290614f5c565b60405180910390fd5b60011515601960003373ffffffffffffffffffffffffffffffffffffffff1673ffffffffffffffffffffffffffffffffffffffff16815260200190815260200160002060009054906101000a900460ff16151514610e6e576040517f08c379a0000000000000000000000000000000000000000000000000000000008152600401610e6590614ffc565b60405180910390fd5b8060179080519060200190610e84929190613f81565b507f1f385d9cd3e76e1eb420621360e7a3dfb0b48750c4569e5326652de603794643601733604051610eb7929190614c0c565b60405180910390a150565b610eca613195565b60011515601660039054906101000a900460ff1615151415610f21576040517f08c379a0000000000000000000000000000000000000000000000000000000008152600401610f1890614cdc565b60405180910390fd5b6001601660036101000a81548160ff021916908315150217905550565b610f5983838360405180602001604052806000815250612648565b505050565b601660049054906101000a900460ff1681565b60196020528060005260406000206000915054906101000a900460ff1681565b600d5481565b6000610fa1610ae9565b8210610fe2576040517f08c379a0000000000000000000000000000000000000000000000000000000008152600401610fd99061503c565b60405180910390fd5b6008828154811061101c577f4e487b7100000000000000000000000000000000000000000000000000000000600052603260045260246000fd5b90600052602060002001549050919050565b601660019054906101000a900460ff1681565b611049613195565b60001515601660039054906101000a900460ff16151514156110a0576040517f08c379a000000000000000000000000000000000000000000000000000000000815260040161109790614cdc565b60405180910390fd5b6000601660036101000a81548160ff021916908315150217905550565b6000806002600084815260200190815260200160002060009054906101000a900473ffffffffffffffffffffffffffffffffffffffff169050600073ffffffffffffffffffffffffffffffffffffffff168173ffffffffffffffffffffffffffffffffffffffff161415611166576040517f08c379a000000000000000000000000000000000000000000000000000000000815260040161115d90614fbc565b60405180910390fd5b80915050919050565b611177613195565b60011515601660029054906101000a900460ff16151514156111ce576040517f08c379a00000000000000000000000000000000000000000000000000000000081526004016111c590614d9c565b60405180910390fd5b6000601660006101000a81548160ff0219169083151502179055506000601660016101000a81548160ff0219169083151502179055506001601660026101000a81548160ff021916908315150217905550565b611229613195565b60001515601960008373ffffffffffffffffffffffffffffffffffffffff1673ffffffffffffffffffffffffffffffffffffffff16815260200190815260200160002060009054906101000a900460ff16151514156112bd576040517f08c379a00000000000000000000000000000000000000000000000000000000081526004016112b490614d5c565b60405180910390fd5b6000601960008373ffffffffffffffffffffffffffffffffffffffff1673ffffffffffffffffffffffffffffffffffffffff16815260200190815260200160002060006101000a81548160ff02191690831515021790555050565b611320613195565b60011515601a60008373ffffffffffffffffffffffffffffffffffffffff1673ffffffffffffffffffffffffffffffffffffffff16815260200190815260200160002060009054906101000a900460ff16151514156113b4576040517f08c379a00000000000000000000000000000000000000000000000000000000081526004016113ab90614ebc565b60405180910390fd5b8073ffffffffffffffffffffffffffffffffffffffff166113d3611b0e565b73ffffffffffffffffffffffffffffffffffffffff16141561142a576040517f08c379a000000000000000000000000000000000000000000000000000000000815260040161142190614efc565b60405180910390fd5b6001601a60008373ffffffffffffffffffffffffffffffffffffffff1673ffffffffffffffffffffffffffffffffffffffff16815260200190815260200160002060006101000a81548160ff0219169083151502179055506000601960008373ffffffffffffffffffffffffffffffffffffffff1673ffffffffffffffffffffffffffffffffffffffff16815260200190815260200160002060006101000a81548160ff0219169083151502179055507f98033e766b38586b7a8f05e193680bf2f8a3f65d477feb6a51ad00c2b25effa0813360405161150b929190614ae5565b60405180910390a150565b60008073ffffffffffffffffffffffffffffffffffffffff168273ffffffffffffffffffffffffffffffffffffffff161415611587576040517f08c379a000000000000000000000000000000000000000000000000000000000815260040161157e90614e1c565b60405180910390fd5b600360008373ffffffffffffffffffffffffffffffffffffffff1673ffffffffffffffffffffffffffffffffffffffff168152602001908152602001600020549050919050565b6115d6613195565b6115e06000613213565b565b60011515601660049054906101000a900460ff16151514611638576040517f08c379a000000000000000000000000000000000000000000000000000000000815260040161162f90614f5c565b60405180910390fd5b60011515601660039054906101000a900460ff1615151461168e576040517f08c379a000000000000000000000000000000000000000000000000000000000815260040161168590614e5c565b60405180910390fd5b60011515601660029054906101000a900460ff161515146116e4576040517f08c379a00000000000000000000000000000000000000000000000000000000081526004016116db90614f9c565b60405180910390fd5b6000831415611728576040517f08c379a000000000000000000000000000000000000000000000000000000000815260040161171f90614e9c565b60405180910390fd5b60011515601660029054906101000a900460ff16151514156117d85760011515601a60003373ffffffffffffffffffffffffffffffffffffffff1673ffffffffffffffffffffffffffffffffffffffff16815260200190815260200160002060009054906101000a900460ff161515146117d7576040517f08c379a00000000000000000000000000000000000000000000000000000000081526004016117ce90614c9c565b60405180910390fd5b5b600c54600d54111561181f576040517f08c379a000000000000000000000000000000000000000000000000000000000815260040161181690614cbc565b60405180910390fd5b60011515601a60003373ffffffffffffffffffffffffffffffffffffffff1673ffffffffffffffffffffffffffffffffffffffff16815260200190815260200160002060009054906101000a900460ff16151514156119df57600e600081548092919061188b90615339565b9190505550601360008154809291906118a390615339565b9190505550601b60003373ffffffffffffffffffffffffffffffffffffffff1673ffffffffffffffffffffffffffffffffffffffff16815260200190815260200160002060008154809291906118f890615339565b9190505550600e54600c5461190d91906151ec565b600d81905550600f54601b60003373ffffffffffffffffffffffffffffffffffffffff1673ffffffffffffffffffffffffffffffffffffffff168152602001908152602001600020541115611997576040517f08c379a000000000000000000000000000000000000000000000000000000000815260040161198e90614edc565b60405180910390fd5b60125460135411156119de576040517f08c379a00000000000000000000000000000000000000000000000000000000081526004016119d59061507c565b60405180910390fd5b5b602e815114611a1a576040517f13f04adb00000000000000000000000000000000000000000000000000000000815260040160405180910390fd5b602e815114611a55576040517ffac5ca3300000000000000000000000000000000000000000000000000000000815260040160405180910390fd5b611a5f33846132d9565b611a6983826132f7565b604051806040016040528083815260200182815250601860008581526020019081526020016000206000820151816000019080519060200190611aad929190613f81565b506020820151816001019080519060200190611aca929190613f81565b509050507f8e503b21c99b65aca8c7496e1574773871f0a73bf9262e58fb99528b46fd776a338483604051611b0193929190614b5a565b60405180910390a1505050565b6000600b60009054906101000a900473ffffffffffffffffffffffffffffffffffffffff16905090565b606060018054611b47906152d6565b80601f0160208091040260200160405190810160405280929190818152602001828054611b73906152d6565b8015611bc05780601f10611b9557610100808354040283529160200191611bc0565b820191906000526020600020905b815481529060010190602001808311611ba357829003601f168201915b5050505050905090565b611bd2613195565b60001515601a60008373ffffffffffffffffffffffffffffffffffffffff1673ffffffffffffffffffffffffffffffffffffffff16815260200190815260200160002060009054906101000a900460ff1615151415611c66576040517f08c379a0000000000000000000000000000000000000000000000000000000008152600401611c5d90614d5c565b60405180910390fd5b6000601a60008373ffffffffffffffffffffffffffffffffffffffff1673ffffffffffffffffffffffffffffffffffffffff16815260200190815260200160002060006101000a81548160ff02191690831515021790555050565b611cd3611ccc612dd8565b838361336b565b5050565b60011515601660049054906101000a900460ff16151514611d2d576040517f08c379a0000000000000000000000000000000000000000000000000000000008152600401611d2490614f5c565b60405180910390fd5b60011515601660039054906101000a900460ff16151514611d83576040517f08c379a0000000000000000000000000000000000000000000000000000000008152600401611d7a90614e5c565b60405180910390fd5b60011515601660009054906101000a900460ff16151514611dd9576040517f08c379a0000000000000000000000000000000000000000000000000000000008152600401611dd090614c3c565b60405180910390fd5b600c54600d541115611e20576040517f08c379a0000000000000000000000000000000000000000000000000000000008152600401611e1790614cbc565b60405180910390fd5b6000831415611e64576040517f08c379a0000000000000000000000000000000000000000000000000000000008152600401611e5b90614e9c565b60405180910390fd5b60011515601660009054906101000a900460ff1615151415611fe757600e6000815480929190611e9390615339565b919050555060156000815480929190611eab90615339565b9190505550601b60003373ffffffffffffffffffffffffffffffffffffffff1673ffffffffffffffffffffffffffffffffffffffff1681526020019081526020016000206000815480929190611f0090615339565b9190505550600e54600c54611f1591906151ec565b600d81905550600f54601b60003373ffffffffffffffffffffffffffffffffffffffff1673ffffffffffffffffffffffffffffffffffffffff168152602001908152602001600020541115611f9f576040517f08c379a0000000000000000000000000000000000000000000000000000000008152600401611f9690614edc565b60405180910390fd5b6014546015541115611fe6576040517f08c379a0000000000000000000000000000000000000000000000000000000008152600401611fdd90614e3c565b60405180910390fd5b5b602e815114612022576040517f13f04adb00000000000000000000000000000000000000000000000000000000815260040160405180910390fd5b602e81511461205d576040517ffac5ca3300000000000000000000000000000000000000000000000000000000815260040160405180910390fd5b61206733846132d9565b61207183826132f7565b6040518060400160405280838152602001828152506018600085815260200190815260200160002060008201518160000190805190602001906120b5929190613f81565b5060208201518160010190805190602001906120d2929190613f81565b509050507f8e503b21c99b65aca8c7496e1574773871f0a73bf9262e58fb99528b46fd776a33848360405161210993929190614b5a565b60405180910390a1505050565b60011515601660049054906101000a900460ff1615151461216c576040517f08c379a000000000000000000000000000000000000000000000000000000000815260040161216390614f5c565b60405180910390fd5b60011515601660039054906101000a900460ff161515146121c2576040517f08c379a00000000000000000000000000000000000000000000000000000000081526004016121b990614e5c565b60405180910390fd5b60011515601660019054906101000a900460ff16151514612218576040517f08c379a000000000000000000000000000000000000000000000000000000000815260040161220f9061501c565b60405180910390fd5b600083141561225c576040517f08c379a000000000000000000000000000000000000000000000000000000000815260040161225390614e9c565b60405180910390fd5b60011515601660019054906101000a900460ff161515141561230c5760011515601960003373ffffffffffffffffffffffffffffffffffffffff1673ffffffffffffffffffffffffffffffffffffffff16815260200190815260200160002060009054906101000a900460ff1615151461230b576040517f08c379a000000000000000000000000000000000000000000000000000000000815260040161230290614dfc565b60405180910390fd5b5b60011515601960003373ffffffffffffffffffffffffffffffffffffffff1673ffffffffffffffffffffffffffffffffffffffff16815260200190815260200160002060009054906101000a900460ff161515141561251357600e600081548092919061237890615339565b91905055506011600081548092919061239090615339565b9190505550601b60003373ffffffffffffffffffffffffffffffffffffffff1673ffffffffffffffffffffffffffffffffffffffff16815260200190815260200160002060008154809291906123e590615339565b9190505550600e54600c546123fa91906151ec565b600d81905550600c54600d541115612447576040517f08c379a000000000000000000000000000000000000000000000000000000000815260040161243e90614cbc565b60405180910390fd5b601054601154111561248e576040517f08c379a00000000000000000000000000000000000000000000000000000000081526004016124859061507c565b60405180910390fd5b600f54601b60003373ffffffffffffffffffffffffffffffffffffffff1673ffffffffffffffffffffffffffffffffffffffff168152602001908152602001600020541115612512576040517f08c379a000000000000000000000000000000000000000000000000000000000815260040161250990614edc565b60405180910390fd5b5b602e81511461254e576040517f13f04adb00000000000000000000000000000000000000000000000000000000815260040160405180910390fd5b602e815114612589576040517ffac5ca3300000000000000000000000000000000000000000000000000000000815260040160405180910390fd5b61259333846132d9565b61259d83826132f7565b6040518060400160405280838152602001828152506018600085815260200190815260200160002060008201518160000190805190602001906125e1929190613f81565b5060208201518160010190805190602001906125fe929190613f81565b509050507f8e503b21c99b65aca8c7496e1574773871f0a73bf9262e58fb99528b46fd776a33848360405161263593929190614b5a565b60405180910390a1505050565b600c5481565b612659612653612dd8565b83612e99565b612698576040517f08c379a000000000000000000000000000000000000000000000000000000000815260040161268f9061505c565b60405180910390fd5b6126a4848484846134d8565b50505050565b6126b2613195565b60011515601960008373ffffffffffffffffffffffffffffffffffffffff1673ffffffffffffffffffffffffffffffffffffffff16815260200190815260200160002060009054906101000a900460ff1615151415612746576040517f08c379a000000000000000000000000000000000000000000000000000000000815260040161273d90614ebc565b60405180910390fd5b8073ffffffffffffffffffffffffffffffffffffffff16612765611b0e565b73ffffffffffffffffffffffffffffffffffffffff1614156127bc576040517f08c379a00000000000000000000000000000000000000000000000000000000081526004016127b390614efc565b60405180910390fd5b6001601960008373ffffffffffffffffffffffffffffffffffffffff1673ffffffffffffffffffffffffffffffffffffffff16815260200190815260200160002060006101000a81548160ff0219169083151502179055506000601a60008373ffffffffffffffffffffffffffffffffffffffff1673ffffffffffffffffffffffffffffffffffffffff16815260200190815260200160002060006101000a81548160ff0219169083151502179055507fda72f9109761c67db7bfeab392687d1b5ec6b045a04f061a44b24a5fecff65b9813360405161289d929190614ae5565b60405180910390a150565b60105481565b60125481565b601660009054906101000a900460ff1681565b606060011515601660049054906101000a900460ff1615151461291f576040517f08c379a000000000000000000000000000000000000000000000000000000000815260040161291690614f5c565b60405180910390fd5b601760186000848152602001908152602001600020600101604051602001612948929190614aa6565b6040516020818303038152906040529050919050565b612966613195565b60011515601660019054906101000a900460ff16151514156129bd576040517f08c379a00000000000000000000000000000000000000000000000000000000081526004016129b490614d7c565b60405180910390fd5b6000601660006101000a81548160ff0219169083151502179055506000601660026101000a81548160ff0219169083151502179055506001601660016101000a81548160ff021916908315150217905550565b612a18613195565b60011515601660009054906101000a900460ff1615151415612a6f576040517f08c379a0000000000000000000000000000000000000000000000000000000008152600401612a6690614d9c565b60405180910390fd5b6000601660016101000a81548160ff0219169083151502179055506000601660026101000a81548160ff0219169083151502179055506001601660006101000a81548160ff02191690831515021790555060135460126000828254612ad491906151ec565b92505081905560128190555060145460126000828254612af49190615196565b92505081905560148190555060125460126000828254612b1491906151ec565b925050819055601281905550565b601a6020528060005260406000206000915054906101000a900460ff1681565b600f5481565b6000600560008473ffffffffffffffffffffffffffffffffffffffff1673ffffffffffffffffffffffffffffffffffffffff16815260200190815260200160002060008373ffffffffffffffffffffffffffffffffffffffff1673ffffffffffffffffffffffffffffffffffffffff16815260200190815260200160002060009054906101000a900460ff16905092915050565b612be4613195565b6001601660046101000a81548160ff021916908315150217905550565b612c09613195565b600073ffffffffffffffffffffffffffffffffffffffff168173ffffffffffffffffffffffffffffffffffffffff161415612c79576040517f08c379a0000000000000000000000000000000000000000000000000000000008152600401612c7090614cfc565b60405180910390fd5b612c8281613213565b50565b60178054612c92906152d6565b80601f0160208091040260200160405190810160405280929190818152602001828054612cbe906152d6565b8015612d0b5780601f10612ce057610100808354040283529160200191612d0b565b820191906000526020600020905b815481529060010190602001808311612cee57829003601f168201915b505050505081565b60007f780e9d63000000000000000000000000000000000000000000000000000000007bffffffffffffffffffffffffffffffffffffffffffffffffffffffff1916827bffffffffffffffffffffffffffffffffffffffffffffffffffffffff19161480612d865750612d8582613534565b5b9050919050565b612d9681613616565b612dd5576040517f08c379a0000000000000000000000000000000000000000000000000000000008152600401612dcc90614fbc565b60405180910390fd5b50565b600033905090565b816004600083815260200190815260200160002060006101000a81548173ffffffffffffffffffffffffffffffffffffffff021916908373ffffffffffffffffffffffffffffffffffffffff160217905550808273ffffffffffffffffffffffffffffffffffffffff16612e53836110bd565b73ffffffffffffffffffffffffffffffffffffffff167f8c5be1e5ebec7d5bd14f71427d1e84f3dd0314c0f7b2291e5b200ac8c7c3b92560405160405180910390a45050565b600080612ea5836110bd565b90508073ffffffffffffffffffffffffffffffffffffffff168473ffffffffffffffffffffffffffffffffffffffff161480612ee75750612ee68185612b48565b5b80612f2557508373ffffffffffffffffffffffffffffffffffffffff16612f0d8461098b565b73ffffffffffffffffffffffffffffffffffffffff16145b91505092915050565b8273ffffffffffffffffffffffffffffffffffffffff16612f4e826110bd565b73ffffffffffffffffffffffffffffffffffffffff1614612fa4576040517f08c379a0000000000000000000000000000000000000000000000000000000008152600401612f9b90614d1c565b60405180910390fd5b600073ffffffffffffffffffffffffffffffffffffffff168273ffffffffffffffffffffffffffffffffffffffff161415613014576040517f08c379a000000000000000000000000000000000000000000000000000000000815260040161300b90614dbc565b60405180910390fd5b61301f838383613682565b61302a600082612de0565b6001600360008573ffffffffffffffffffffffffffffffffffffffff1673ffffffffffffffffffffffffffffffffffffffff168152602001908152602001600020600082825461307a91906151ec565b925050819055506001600360008473ffffffffffffffffffffffffffffffffffffffff1673ffffffffffffffffffffffffffffffffffffffff16815260200190815260200160002060008282546130d19190615196565b92505081905550816002600083815260200190815260200160002060006101000a81548173ffffffffffffffffffffffffffffffffffffffff021916908373ffffffffffffffffffffffffffffffffffffffff160217905550808273ffffffffffffffffffffffffffffffffffffffff168473ffffffffffffffffffffffffffffffffffffffff167fddf252ad1be2c89b69c2b068fc378daa952ba7f163c4a11628f55a4df523b3ef60405160405180910390a4613190838383613692565b505050565b61319d612dd8565b73ffffffffffffffffffffffffffffffffffffffff166131bb611b0e565b73ffffffffffffffffffffffffffffffffffffffff1614613211576040517f08c379a000000000000000000000000000000000000000000000000000000000815260040161320890614f7c565b60405180910390fd5b565b6000600b60009054906101000a900473ffffffffffffffffffffffffffffffffffffffff16905081600b60006101000a81548173ffffffffffffffffffffffffffffffffffffffff021916908373ffffffffffffffffffffffffffffffffffffffff1602179055508173ffffffffffffffffffffffffffffffffffffffff168173ffffffffffffffffffffffffffffffffffffffff167f8be0079c531659141344cd1fd0a4f28419497f9722a3daafe3b4186f6b6457e060405160405180910390a35050565b6132f3828260405180602001604052806000815250613697565b5050565b61330082613616565b61333f576040517f08c379a000000000000000000000000000000000000000000000000000000000815260040161333690614e7c565b60405180910390fd5b80600a60008481526020019081526020016000209080519060200190613366929190613f81565b505050565b8173ffffffffffffffffffffffffffffffffffffffff168373ffffffffffffffffffffffffffffffffffffffff1614156133da576040517f08c379a00000000000000000000000000000000000000000000000000000000081526004016133d190614ddc565b60405180910390fd5b80600560008573ffffffffffffffffffffffffffffffffffffffff1673ffffffffffffffffffffffffffffffffffffffff16815260200190815260200160002060008473ffffffffffffffffffffffffffffffffffffffff1673ffffffffffffffffffffffffffffffffffffffff16815260200190815260200160002060006101000a81548160ff0219169083151502179055508173ffffffffffffffffffffffffffffffffffffffff168373ffffffffffffffffffffffffffffffffffffffff167f17307eab39ab6107e8899845ad3d59bd9653f200f220920489ca2b5937696c31836040516134cb9190614b98565b60405180910390a3505050565b6134e3848484612f2e565b6134ef848484846136f2565b61352e576040517f08c379a000000000000000000000000000000000000000000000000000000000815260040161352590614c7c565b60405180910390fd5b50505050565b60007f80ac58cd000000000000000000000000000000000000000000000000000000007bffffffffffffffffffffffffffffffffffffffffffffffffffffffff1916827bffffffffffffffffffffffffffffffffffffffffffffffffffffffff191614806135ff57507f5b5e139f000000000000000000000000000000000000000000000000000000007bffffffffffffffffffffffffffffffffffffffffffffffffffffffff1916827bffffffffffffffffffffffffffffffffffffffffffffffffffffffff1916145b8061360f575061360e82613889565b5b9050919050565b60008073ffffffffffffffffffffffffffffffffffffffff166002600084815260200190815260200160002060009054906101000a900473ffffffffffffffffffffffffffffffffffffffff1673ffffffffffffffffffffffffffffffffffffffff1614159050919050565b61368d8383836138f3565b505050565b505050565b6136a18383613a07565b6136ae60008484846136f2565b6136ed576040517f08c379a00000000000000000000000000000000000000000000000000000000081526004016136e490614c7c565b60405180910390fd5b505050565b60006137138473ffffffffffffffffffffffffffffffffffffffff16613be1565b1561387c578373ffffffffffffffffffffffffffffffffffffffff1663150b7a0261373c612dd8565b8786866040518563ffffffff1660e01b815260040161375e9493929190614b0e565b602060405180830381600087803b15801561377857600080fd5b505af19250505080156137a957506040513d601f19601f820116820180604052508101906137a6919061432d565b60015b61382c573d80600081146137d9576040519150601f19603f3d011682016040523d82523d6000602084013e6137de565b606091505b50600081511415613824576040517f08c379a000000000000000000000000000000000000000000000000000000000815260040161381b90614c7c565b60405180910390fd5b805181602001fd5b63150b7a0260e01b7bffffffffffffffffffffffffffffffffffffffffffffffffffffffff1916817bffffffffffffffffffffffffffffffffffffffffffffffffffffffff191614915050613881565b600190505b949350505050565b60007f01ffc9a7000000000000000000000000000000000000000000000000000000007bffffffffffffffffffffffffffffffffffffffffffffffffffffffff1916827bffffffffffffffffffffffffffffffffffffffffffffffffffffffff1916149050919050565b6138fe838383613c04565b600073ffffffffffffffffffffffffffffffffffffffff168373ffffffffffffffffffffffffffffffffffffffff1614156139415761393c81613c09565b613980565b8173ffffffffffffffffffffffffffffffffffffffff168373ffffffffffffffffffffffffffffffffffffffff161461397f5761397e8382613c52565b5b5b600073ffffffffffffffffffffffffffffffffffffffff168273ffffffffffffffffffffffffffffffffffffffff1614156139c3576139be81613dbf565b613a02565b8273ffffffffffffffffffffffffffffffffffffffff168273ffffffffffffffffffffffffffffffffffffffff1614613a0157613a008282613f02565b5b5b505050565b600073ffffffffffffffffffffffffffffffffffffffff168273ffffffffffffffffffffffffffffffffffffffff161415613a77576040517f08c379a0000000000000000000000000000000000000000000000000000000008152600401613a6e90614f3c565b60405180910390fd5b613a8081613616565b15613ac0576040517f08c379a0000000000000000000000000000000000000000000000000000000008152600401613ab790614d3c565b60405180910390fd5b613acc60008383613682565b6001600360008473ffffffffffffffffffffffffffffffffffffffff1673ffffffffffffffffffffffffffffffffffffffff1681526020019081526020016000206000828254613b1c9190615196565b92505081905550816002600083815260200190815260200160002060006101000a81548173ffffffffffffffffffffffffffffffffffffffff021916908373ffffffffffffffffffffffffffffffffffffffff160217905550808273ffffffffffffffffffffffffffffffffffffffff16600073ffffffffffffffffffffffffffffffffffffffff167fddf252ad1be2c89b69c2b068fc378daa952ba7f163c4a11628f55a4df523b3ef60405160405180910390a4613bdd60008383613692565b5050565b6000808273ffffffffffffffffffffffffffffffffffffffff163b119050919050565b505050565b6008805490506009600083815260200190815260200160002081905550600881908060018154018082558091505060019003906000526020600020016000909190919091505550565b60006001613c5f84611516565b613c6991906151ec565b9050600060076000848152602001908152602001600020549050818114613d4e576000600660008673ffffffffffffffffffffffffffffffffffffffff1673ffffffffffffffffffffffffffffffffffffffff168152602001908152602001600020600084815260200190815260200160002054905080600660008773ffffffffffffffffffffffffffffffffffffffff1673ffffffffffffffffffffffffffffffffffffffff168152602001908152602001600020600084815260200190815260200160002081905550816007600083815260200190815260200160002081905550505b6007600084815260200190815260200160002060009055600660008573ffffffffffffffffffffffffffffffffffffffff1673ffffffffffffffffffffffffffffffffffffffff16815260200190815260200160002060008381526020019081526020016000206000905550505050565b60006001600880549050613dd391906151ec565b9050600060096000848152602001908152602001600020549050600060088381548110613e29577f4e487b7100000000000000000000000000000000000000000000000000000000600052603260045260246000fd5b906000526020600020015490508060088381548110613e71577f4e487b7100000000000000000000000000000000000000000000000000000000600052603260045260246000fd5b906000526020600020018190555081600960008381526020019081526020016000208190555060096000858152602001908152602001600020600090556008805480613ee6577f4e487b7100000000000000000000000000000000000000000000000000000000600052603160045260246000fd5b6001900381819060005260206000200160009055905550505050565b6000613f0d83611516565b905081600660008573ffffffffffffffffffffffffffffffffffffffff1673ffffffffffffffffffffffffffffffffffffffff168152602001908152602001600020600083815260200190815260200160002081905550806007600084815260200190815260200160002081905550505050565b828054613f8d906152d6565b90600052602060002090601f016020900481019282613faf5760008555613ff6565b82601f10613fc857805160ff1916838001178555613ff6565b82800160010185558215613ff6579182015b82811115613ff5578251825591602001919060010190613fda565b5b5090506140039190614007565b5090565b5b80821115614020576000816000905550600101614008565b5090565b6000614037614032846150dc565b6150b7565b90508281526020810184848401111561404f57600080fd5b61405a848285615294565b509392505050565b60006140756140708461510d565b6150b7565b90508281526020810184848401111561408d57600080fd5b614098848285615294565b509392505050565b6000813590506140af81615d25565b92915050565b6000813590506140c481615d3c565b92915050565b6000813590506140d981615d53565b92915050565b6000815190506140ee81615d53565b92915050565b600082601f83011261410557600080fd5b8135614115848260208601614024565b91505092915050565b600082601f83011261412f57600080fd5b813561413f848260208601614062565b91505092915050565b60008135905061415781615d6a565b92915050565b60006020828403121561416f57600080fd5b600061417d848285016140a0565b91505092915050565b6000806040838503121561419957600080fd5b60006141a7858286016140a0565b92505060206141b8858286016140a0565b9150509250929050565b6000806000606084860312156141d757600080fd5b60006141e5868287016140a0565b93505060206141f6868287016140a0565b925050604061420786828701614148565b9150509250925092565b6000806000806080858703121561422757600080fd5b6000614235878288016140a0565b9450506020614246878288016140a0565b935050604061425787828801614148565b925050606085013567ffffffffffffffff81111561427457600080fd5b614280878288016140f4565b91505092959194509250565b6000806040838503121561429f57600080fd5b60006142ad858286016140a0565b92505060206142be858286016140b5565b9150509250929050565b600080604083850312156142db57600080fd5b60006142e9858286016140a0565b92505060206142fa85828601614148565b9150509250929050565b60006020828403121561431657600080fd5b6000614324848285016140ca565b91505092915050565b60006020828403121561433f57600080fd5b600061434d848285016140df565b91505092915050565b60006020828403121561436857600080fd5b600082013567ffffffffffffffff81111561438257600080fd5b61438e8482850161411e565b91505092915050565b6000602082840312156143a957600080fd5b60006143b784828501614148565b91505092915050565b6000806000606084860312156143d557600080fd5b60006143e386828701614148565b935050602084013567ffffffffffffffff81111561440057600080fd5b61440c8682870161411e565b925050604084013567ffffffffffffffff81111561442957600080fd5b6144358682870161411e565b9150509250925092565b61444881615220565b82525050565b61445781615232565b82525050565b600061446882615153565b6144728185615169565b93506144828185602086016152a3565b61448b8161540f565b840191505092915050565b60006144a18261515e565b6144ab818561517a565b93506144bb8185602086016152a3565b6144c48161540f565b840191505092915050565b600081546144dc816152d6565b6144e6818661517a565b94506001821660008114614501576001811461451357614546565b60ff1983168652602086019350614546565b61451c8561513e565b60005b8381101561453e5781548189015260018201915060208101905061451f565b808801955050505b50505092915050565b6000815461455c816152d6565b614566818661518b565b945060018216600081146145815760018114614592576145c5565b60ff198316865281860193506145c5565b61459b8561513e565b60005b838110156145bd5781548189015260018201915060208101905061459e565b838801955050505b50505092915050565b60006145db60208361517a565b91506145e682615420565b602082019050919050565b60006145fe602b8361517a565b915061460982615449565b604082019050919050565b600061462160328361517a565b915061462c82615498565b604082019050919050565b600061464460318361517a565b915061464f826154e7565b604082019050919050565b600061466760128361517a565b915061467282615536565b602082019050919050565b600061468a602c8361517a565b91506146958261555f565b604082019050919050565b60006146ad60268361517a565b91506146b8826155ae565b604082019050919050565b60006146d060258361517a565b91506146db826155fd565b604082019050919050565b60006146f3601c8361517a565b91506146fe8261564c565b602082019050919050565b6000614716602f8361517a565b915061472182615675565b604082019050919050565b600061473960228361517a565b9150614744826156c4565b604082019050919050565b600061475c60218361517a565b915061476782615713565b604082019050919050565b600061477f60248361517a565b915061478a82615762565b604082019050919050565b60006147a260198361517a565b91506147ad826157b1565b602082019050919050565b60006147c5602b8361517a565b91506147d0826157da565b604082019050919050565b60006147e860298361517a565b91506147f382615829565b604082019050919050565b600061480b60228361517a565b915061481682615878565b604082019050919050565b600061482e60308361517a565b9150614839826158c7565b604082019050919050565b6000614851602e8361517a565b915061485c82615916565b604082019050919050565b6000614874601b8361517a565b915061487f82615965565b602082019050919050565b6000614897602e8361517a565b91506148a28261598e565b604082019050919050565b60006148ba601f8361517a565b91506148c5826159dd565b602082019050919050565b60006148dd601e8361517a565b91506148e882615a06565b602082019050919050565b6000614900603e8361517a565b915061490b82615a2f565b604082019050919050565b600061492360208361517a565b915061492e82615a7e565b602082019050919050565b600061494660478361517a565b915061495182615aa7565b606082019050919050565b600061496960208361517a565b915061497482615b1c565b602082019050919050565b600061498c60258361517a565b915061499782615b45565b604082019050919050565b60006149af60188361517a565b91506149ba82615b94565b602082019050919050565b60006149d260218361517a565b91506149dd82615bbd565b604082019050919050565b60006149f5601b8361517a565b9150614a0082615c0c565b602082019050919050565b6000614a18601f8361517a565b9150614a2382615c35565b602082019050919050565b6000614a3b602c8361517a565b9150614a4682615c5e565b604082019050919050565b6000614a5e602e8361517a565b9150614a6982615cad565b604082019050919050565b6000614a8160198361517a565b9150614a8c82615cfc565b602082019050919050565b614aa08161528a565b82525050565b6000614ab2828561454f565b9150614abe828461454f565b91508190509392505050565b6000602082019050614adf600083018461443f565b92915050565b6000604082019050614afa600083018561443f565b614b07602083018461443f565b9392505050565b6000608082019050614b23600083018761443f565b614b30602083018661443f565b614b3d6040830185614a97565b8181036060830152614b4f818461445d565b905095945050505050565b6000606082019050614b6f600083018661443f565b614b7c6020830185614a97565b8181036040830152614b8e8184614496565b9050949350505050565b6000602082019050614bad600083018461444e565b92915050565b60006020820190508181036000830152614bcd8184614496565b905092915050565b60006040820190508181036000830152614bef8185614496565b90508181036020830152614c038184614496565b90509392505050565b60006040820190508181036000830152614c2681856144cf565b9050614c35602083018461443f565b9392505050565b60006020820190508181036000830152614c55816145ce565b9050919050565b60006020820190508181036000830152614c75816145f1565b9050919050565b60006020820190508181036000830152614c9581614614565b9050919050565b60006020820190508181036000830152614cb581614637565b9050919050565b60006020820190508181036000830152614cd58161465a565b9050919050565b60006020820190508181036000830152614cf58161467d565b9050919050565b60006020820190508181036000830152614d15816146a0565b9050919050565b60006020820190508181036000830152614d35816146c3565b9050919050565b60006020820190508181036000830152614d55816146e6565b9050919050565b60006020820190508181036000830152614d7581614709565b9050919050565b60006020820190508181036000830152614d958161472c565b9050919050565b60006020820190508181036000830152614db58161474f565b9050919050565b60006020820190508181036000830152614dd581614772565b9050919050565b60006020820190508181036000830152614df581614795565b9050919050565b60006020820190508181036000830152614e15816147b8565b9050919050565b60006020820190508181036000830152614e35816147db565b9050919050565b60006020820190508181036000830152614e55816147fe565b9050919050565b60006020820190508181036000830152614e7581614821565b9050919050565b60006020820190508181036000830152614e9581614844565b9050919050565b60006020820190508181036000830152614eb581614867565b9050919050565b60006020820190508181036000830152614ed58161488a565b9050919050565b60006020820190508181036000830152614ef5816148ad565b9050919050565b60006020820190508181036000830152614f15816148d0565b9050919050565b60006020820190508181036000830152614f35816148f3565b9050919050565b60006020820190508181036000830152614f5581614916565b9050919050565b60006020820190508181036000830152614f7581614939565b9050919050565b60006020820190508181036000830152614f958161495c565b9050919050565b60006020820190508181036000830152614fb58161497f565b9050919050565b60006020820190508181036000830152614fd5816149a2565b9050919050565b60006020820190508181036000830152614ff5816149c5565b9050919050565b60006020820190508181036000830152615015816149e8565b9050919050565b6000602082019050818103600083015261503581614a0b565b9050919050565b6000602082019050818103600083015261505581614a2e565b9050919050565b6000602082019050818103600083015261507581614a51565b9050919050565b6000602082019050818103600083015261509581614a74565b9050919050565b60006020820190506150b16000830184614a97565b92915050565b60006150c16150d2565b90506150cd8282615308565b919050565b6000604051905090565b600067ffffffffffffffff8211156150f7576150f66153e0565b5b6151008261540f565b9050602081019050919050565b600067ffffffffffffffff821115615128576151276153e0565b5b6151318261540f565b9050602081019050919050565b60008190508160005260206000209050919050565b600081519050919050565b600081519050919050565b600082825260208201905092915050565b600082825260208201905092915050565b600081905092915050565b60006151a18261528a565b91506151ac8361528a565b9250827fffffffffffffffffffffffffffffffffffffffffffffffffffffffffffffffff038211156151e1576151e0615382565b5b828201905092915050565b60006151f78261528a565b91506152028361528a565b92508282101561521557615214615382565b5b828203905092915050565b600061522b8261526a565b9050919050565b60008115159050919050565b60007fffffffff0000000000000000000000000000000000000000000000000000000082169050919050565b600073ffffffffffffffffffffffffffffffffffffffff82169050919050565b6000819050919050565b82818337600083830152505050565b60005b838110156152c15780820151818401526020810190506152a6565b838111156152d0576000848401525b50505050565b600060028204905060018216806152ee57607f821691505b60208210811415615302576153016153b1565b5b50919050565b6153118261540f565b810181811067ffffffffffffffff821117156153305761532f6153e0565b5b80604052505050565b60006153448261528a565b91507fffffffffffffffffffffffffffffffffffffffffffffffffffffffffffffffff82141561537757615376615382565b5b600182019050919050565b7f4e487b7100000000000000000000000000000000000000000000000000000000600052601160045260246000fd5b7f4e487b7100000000000000000000000000000000000000000000000000000000600052602260045260246000fd5b7f4e487b7100000000000000000000000000000000000000000000000000000000600052604160045260246000fd5b6000601f19601f8301169050919050565b7f5075626c6963204d696e74696e67204973206e6f7420616374697665206e6f77600082015250565b7f455243373231456e756d657261626c653a206f776e657220696e646578206f7560008201527f74206f6620626f756e6473000000000000000000000000000000000000000000602082015250565b7f4552433732313a207472616e7366657220746f206e6f6e20455243373231526560008201527f63656976657220696d706c656d656e7465720000000000000000000000000000602082015250565b7f596f75722061646472657373206973206e6f7420616c6c6f7720666f72206d6960008201527f6e742061732077686974656c6973746564000000000000000000000000000000602082015250565b7f4e66747320686173206265656e206e756c6c0000000000000000000000000000600082015250565b7f4d696e74696e67207374617475732068617320616c7265616479206465636c6160008201527f7265642061732066616c73650000000000000000000000000000000000000000602082015250565b7f4f776e61626c653a206e6577206f776e657220697320746865207a65726f206160008201527f6464726573730000000000000000000000000000000000000000000000000000602082015250565b7f4552433732313a207472616e736665722066726f6d20696e636f72726563742060008201527f6f776e6572000000000000000000000000000000000000000000000000000000602082015250565b7f4552433732313a20746f6b656e20616c7265616479206d696e74656400000000600082015250565b7f5468697320616464726573732068617320616c7265616479206265656e20646560008201527f636c617265642061732066616c73650000000000000000000000000000000000602082015250565b7f41646d696e4d696e74696e672068617320616c7265616479206265656e20747260008201527f7565000000000000000000000000000000000000000000000000000000000000602082015250565b7f5075626c69632053616c652068617320616c7265616479206265656e2074727560008201527f6500000000000000000000000000000000000000000000000000000000000000602082015250565b7f4552433732313a207472616e7366657220746f20746865207a65726f2061646460008201527f7265737300000000000000000000000000000000000000000000000000000000602082015250565b7f4552433732313a20617070726f766520746f2063616c6c657200000000000000600082015250565b7f596f75722061646472657373206973206e6f7420616c6c6f7720666f72206d6960008201527f6e742061732061646d696e000000000000000000000000000000000000000000602082015250565b7f4552433732313a2061646472657373207a65726f206973206e6f74206120766160008201527f6c6964206f776e65720000000000000000000000000000000000000000000000602082015250565b7f5075626c6963204d696e74696e67206c696d697420686173206265656e206e7560008201527f6c6c000000000000000000000000000000000000000000000000000000000000602082015250565b7f4d696e74696e672046756e6374696f6e206973206e6f7420776f726b696e672060008201527f7965742c20747279206c617465722e2000000000000000000000000000000000602082015250565b7f45524337323155524953746f726167653a2055524920736574206f66206e6f6e60008201527f6578697374656e7420746f6b656e000000000000000000000000000000000000602082015250565b7f596f752063616e277420707574203020666f7220746f6b656e49640000000000600082015250565b7f5468697320616464726573732068617320616c7265616479206265656e20646560008201527f636c617265642061732074727565000000000000000000000000000000000000602082015250565b7f596f75722057616c6c6574204c696d697420486173204265656e2046756c6c00600082015250565b7f4f776e65722063616e277420616374697665206f757220616464726573730000600082015250565b7f4552433732313a20617070726f76652063616c6c6572206973206e6f7420746f60008201527f6b656e206f776e6572206e6f7220617070726f76656420666f7220616c6c0000602082015250565b7f4552433732313a206d696e7420746f20746865207a65726f2061646472657373600082015250565b7f4f776e657220686176652073746f70656420746869732066756e6374696f6e2060008201527f666f7220736f6d6520726561736f6e2e2049742077696c6c206265206f70656e60208201527f206c617465722e00000000000000000000000000000000000000000000000000604082015250565b7f4f776e61626c653a2063616c6c6572206973206e6f7420746865206f776e6572600082015250565b7f57686974656c6973746564204d696e74696e67204973206e6f7420616374697660008201527f65206e6f77000000000000000000000000000000000000000000000000000000602082015250565b7f4552433732313a20696e76616c696420746f6b656e2049440000000000000000600082015250565b7f4552433732313a20617070726f76616c20746f2063757272656e74206f776e6560008201527f7200000000000000000000000000000000000000000000000000000000000000602082015250565b7f4f6e6c792041646d696e732043616e2053657420426173655552490000000000600082015250565b7f41646d696e204d696e74696e67204973206e6f7420616374697665206e6f7700600082015250565b7f455243373231456e756d657261626c653a20676c6f62616c20696e646578206f60008201527f7574206f6620626f756e64730000000000000000000000000000000000000000602082015250565b7f4552433732313a2063616c6c6572206973206e6f7420746f6b656e206f776e6560008201527f72206e6f7220617070726f766564000000000000000000000000000000000000602082015250565b7f41646d696e206c696d697420686173206265656e206e756c6c00000000000000600082015250565b615d2e81615220565b8114615d3957600080fd5b50565b615d4581615232565b8114615d5057600080fd5b50565b615d5c8161523e565b8114615d6757600080fd5b50565b615d738161528a565b8114615d7e57600080fd5b5056fea2646970667358221220143a462ef44f9fe882dbf14d3fad2577c28e28e23253eb0dff471f854d66e85d64736f6c6343000804003368747470733a2f2f676174657761792e70696e6174612e636c6f75642f697066732f",
  "immutableReferences": {},
  "source": "// SPDX-License-Identifier: MIT\r\npragma solidity ^0.8.4;\r\n \r\nimport \"@openzeppelin/contracts/token/ERC721/ERC721.sol\";\r\nimport \"@openzeppelin/contracts/token/ERC721/extensions/ERC721Enumerable.sol\";\r\nimport \"@openzeppelin/contracts/token/ERC721/extensions/ERC721URIStorage.sol\";\r\nimport \"@openzeppelin/contracts/access/Ownable.sol\";\r\n \r\n/**\r\n * @dev Implementation of https://eips.ethereum.org/EIPS/eip-721 Non-Fungible Token Standard, including\r\n * ERC721, ERC721Enumerable , ERC721URIStorage , Ownable\r\n */\r\n \r\ncontract specialNftContract is ERC721, ERC721Enumerable, ERC721URIStorage, Ownable {\r\n   \r\n    uint public MaxSupply;\r\n    uint public RemainingMaxSupply;\r\n    uint CirculatingSupply;\r\n    uint public PerWalletLimit;\r\n    uint public AdminLimit;\r\n    uint DoneNFTAdminLimit;\r\n    uint public WhitelistLimit;\r\n    uint DoneNFTWhitelistLimit;\r\n    uint public PublicLimit;\r\n    uint DoneNFTPublicLimit;\r\n    bool public PublicSales ;\r\n    bool public AdminMinting ;\r\n    bool public WhiteListMinting ;\r\n    bool public MintingStatus;\r\n    bool public ForAllFunctions = true;\r\n    string public BaseURI;\r\n \r\n    struct saveNFTinfo{\r\n        string Name;\r\n        string MetaDataHash;\r\n    }\r\n \r\n    mapping (uint => saveNFTinfo) public storeNFTInfo;\r\n    mapping (address => bool) public CheckAdminAddress;\r\n    mapping (address => bool) public CheckWhitelistAddress;\r\n    mapping (address => uint) public CheckNftsOnPerWalletAddress;\r\n \r\n    error InvalidMetadataHash();\r\n    error InvalidTokenURI();\r\n \r\n    event SetBaseURI(\r\n        string baseURI,\r\n        address addedBy\r\n    );\r\n \r\n    event AddedAdminAdddress(\r\n        address whitelistedAddress,\r\n        address updatedBy\r\n    );\r\n \r\n    event AddedWhitelistAddress(\r\n        address whitelistedAddress,\r\n        address updatedBy\r\n    );\r\n \r\n \r\n    event NftMinted(\r\n        address Minter,\r\n        uint NftId,\r\n        string metadataHash\r\n    );\r\n \r\n    constructor(uint256 _MaxSupply, uint256 _AdminLimit, uint256 _WhitelistLimit, uint256 _PerWalletLimit , bool mintingStatus) ERC721( \"IEC-Token\", \"IET\") {\r\n        MaxSupply = _MaxSupply;\r\n        AdminLimit = _AdminLimit;\r\n        WhitelistLimit = _WhitelistLimit;\r\n        PerWalletLimit = _PerWalletLimit;\r\n        PublicLimit = MaxSupply - AdminLimit - WhitelistLimit;\r\n        MintingStatus = mintingStatus;\r\n        BaseURI = \"https://gateway.pinata.cloud/ipfs/\";\r\n \r\n        emit SetBaseURI(BaseURI, msg.sender);\r\n \r\n    }\r\n \r\n    /**\r\n     * @dev updateBaseURi is used to update the baseUri of Nft.\r\n     * Requirement:\r\n     * - This function can only called by whitelist address of the contract\r\n     * @param _BaseURI - BaseURI\r\n    */\r\n \r\n    function updateBaseURi(string memory _BaseURI) public {\r\n        require(ForAllFunctions == true,\"Owner have stoped this function for some reason. It will be open later.\");\r\n        require(CheckAdminAddress[msg.sender] == true, \"Only Admins Can Set BaseURI\");\r\n        BaseURI = _BaseURI;\r\n \r\n        emit SetBaseURI(BaseURI, msg.sender);\r\n    }\r\n \r\n    /**\r\n     * @dev ActiveAdminAddress is used to Admin & whitelsit account.\r\n     * Requirement:\r\n     * - This function can only called by owner of the contract\r\n     * @param _Address - AdminAccount to be add\r\n     * @param _Address - WhitelistAccount to be remove\r\n    */\r\n \r\n    function ActiveAdminAddress(address _Address) public onlyOwner{\r\n        require(CheckAdminAddress[_Address] != true,\"This address has already been declared as true\");\r\n        require(owner() != _Address ,\"Owner can't active our address\");\r\n        CheckAdminAddress[_Address] = true;\r\n        CheckWhitelistAddress[_Address] = false;\r\n \r\n        emit AddedAdminAdddress(_Address, msg.sender);  \r\n    }\r\n \r\n    /**\r\n     * @dev InactiveAdminAddress is used to whitelsit admin account.\r\n     * Requirement:\r\n     * - This function can only called by owner of the contract\r\n     * @param _Address - AdminAccount to be remove\r\n    */\r\n \r\n    function InactiveAdminAddress(address _Address) public onlyOwner{\r\n        require(CheckAdminAddress[_Address] != false,\"This address has already been declared as false\");\r\n        CheckAdminAddress[_Address] = false;\r\n \r\n \r\n    }\r\n \r\n    /**\r\n     * @dev ActiveWhiteListAddress is used to Admin & whitelsit account.\r\n     * Requirement:\r\n     * - This function can only called by owner of the contract\r\n     * @param _Address - WhitelistAccount to be add\r\n     * @param _Address - AdminAccount to be remove\r\n    */\r\n \r\n    function ActiveWhiteListAddress(address _Address) public onlyOwner{\r\n        require(CheckWhitelistAddress[_Address] != true,\"This address has already been declared as true\");\r\n        require(owner() != _Address ,\"Owner can't active our address\");\r\n        CheckWhitelistAddress[_Address] = true;\r\n        CheckAdminAddress[_Address] = false;\r\n \r\n        emit AddedWhitelistAddress(_Address, msg.sender);  \r\n       \r\n    }\r\n \r\n    /**\r\n     * @dev InactiveWhiteListAddress is used to whitelsit admin account.\r\n     * Requirement:\r\n     * - This function can only called by owner of the contract\r\n     * @param _Address - Whitelist-Account to be remove\r\n    */\r\n \r\n    function InactiveWhiteListAddress(address _Address) public onlyOwner{\r\n        require(CheckWhitelistAddress[_Address] != false,\"This address has already been declared as false\");\r\n        CheckWhitelistAddress[_Address] = false;\r\n \r\n    }\r\n \r\n    /**\r\n     * @dev ActiveAdminMinting is used to true Admin-Minting, false whitelsit-Minting & false Public-Sales.\r\n     * Requirement:\r\n     * - This function can only called by owner of the contract\r\n    */\r\n \r\n    function ActiveAdminMinting() public onlyOwner{\r\n        require(AdminMinting != true,\"AdminMinting has already been true\");\r\n        PublicSales = false;\r\n        WhiteListMinting = false;\r\n        AdminMinting = true;\r\n    }\r\n \r\n    /**\r\n     * @dev ActiveWhiteListMinting is used to false Admin-Minting, true whitelsit-Minting & false Public-Sales.\r\n     * Requirement:\r\n     * - This function can only called by owner of the contract\r\n    */\r\n \r\n    function ActiveWhiteListMinting() public onlyOwner{\r\n        require(WhiteListMinting != true,\"Public Sale has already been true\");\r\n        PublicSales = false;\r\n        AdminMinting = false;\r\n        WhiteListMinting = true;\r\n    }\r\n \r\n    /**\r\n     * @dev ActivePublicSales is used to false Admin-Minting, false whitelsit-Minting & true Public-Sales.\r\n     * @dev ActivePublicSales is used to set public limit.\r\n     * Requirement:\r\n     * - This function can only called by owner of the contract\r\n    */\r\n \r\n    function ActivePublicSales() public onlyOwner{\r\n        require(PublicSales != true,\"Public Sale has already been true\");\r\n        AdminMinting = false;\r\n        WhiteListMinting = false;\r\n        PublicSales = true;\r\n        WhitelistLimit = WhitelistLimit -= DoneNFTWhitelistLimit;\r\n        PublicLimit = WhitelistLimit += PublicLimit;\r\n        WhitelistLimit = WhitelistLimit -= WhitelistLimit;\r\n    }\r\n \r\n    /**\r\n     * @dev UnpausedMintingStatus is used to active mintng status.\r\n     * Requirement:\r\n     * - This function can only called by owner of the Contract\r\n    */\r\n \r\n    function UnpausedMintingStatus() public onlyOwner{\r\n        require(MintingStatus != true,\"Minting status has already declared as false\");\r\n        MintingStatus = true;\r\n \r\n    }\r\n \r\n    /**\r\n     * @dev UnpausedMintingStatus is used to stop mintng status.\r\n     * Requirement:\r\n     * - This function can only called by owner of the Contract\r\n    */\r\n \r\n    function PausedMintingStatus() public  onlyOwner{\r\n        require(MintingStatus != false,\"Minting status has already declared as false\");\r\n        MintingStatus = false;\r\n \r\n    }\r\n \r\n    /**\r\n     * @dev UnpausedMintingStatus is used to active all functions.\r\n     * Requirement:\r\n     * - This function can only called by owner of the Contract\r\n    */\r\n \r\n    function UnpausedAllFunctions() public onlyOwner{\r\n        ForAllFunctions = true;\r\n    }\r\n \r\n    /**\r\n     * @dev UnpausedMintingStatus is used to stop all functions.\r\n     * Requirement:\r\n     * - This function can only called by owner of the Contract\r\n    */\r\n \r\n    function PausedAllFunctions() public  onlyOwner{\r\n        ForAllFunctions = false;\r\n    }\r\n \r\n    /**\r\n     * @dev adminMinting is used to create a new nft from admin address.\r\n     * Requirement:    \r\n     * @param tokenId - nft tokenId\r\n     * @param name - nft name\r\n     * @param metaDataHash - nft metaDataHash\r\n    */\r\n \r\n    function adminMinting(uint256 tokenId,  string memory name, string memory metaDataHash) public {\r\n        require(ForAllFunctions == true,\"Owner have stoped this function for some reason. It will be open later.\");\r\n        require(MintingStatus == true, \"Minting Function is not working yet, try later. \");\r\n        require(AdminMinting == true , \"Admin Minting Is not active now\");\r\n        require(tokenId != 0,\"You can't put 0 for tokenId\");\r\n        if(AdminMinting == true){\r\n            require(CheckAdminAddress[msg.sender] == true , \"Your address is not allow for mint as admin\");\r\n        }\r\n \r\n \r\n        if(CheckAdminAddress[msg.sender] == true ){\r\n            CirculatingSupply++;\r\n            DoneNFTAdminLimit++;\r\n            CheckNftsOnPerWalletAddress[msg.sender]++;\r\n            RemainingMaxSupply = MaxSupply - CirculatingSupply;\r\n            require(RemainingMaxSupply <= MaxSupply, \"Nfts has been null\");\r\n            require(DoneNFTAdminLimit <= AdminLimit , \"Admin limit has been null\");\r\n            require(CheckNftsOnPerWalletAddress[msg.sender] <= PerWalletLimit, \"Your Wallet Limit Has Been Full\");\r\n        }\r\n \r\n        if (bytes(metaDataHash).length != 46) {\r\n            revert InvalidTokenURI();\r\n        }\r\n \r\n        if (bytes(metaDataHash).length != 46) {\r\n            revert InvalidMetadataHash();\r\n        }\r\n \r\n        _safeMint(msg.sender, tokenId);\r\n        _setTokenURI(tokenId, metaDataHash);\r\n        storeNFTInfo[tokenId] = saveNFTinfo(name, metaDataHash);\r\n \r\n        emit NftMinted(msg.sender, tokenId,metaDataHash);\r\n    }\r\n \r\n    /**\r\n     * @dev whitelistMinting is used to create a new nft from whitelist address.\r\n     * Requirement:    \r\n     * @param tokenId - nft tokenId\r\n     * @param name - nft name\r\n     * @param metaDataHash - nft metaDataHash\r\n    */\r\n \r\n    function whitelistMinting( uint256 tokenId, string memory name, string memory metaDataHash) public {\r\n        require(ForAllFunctions == true,\"Owner have stoped this function for some reason. It will be open later.\");\r\n        require(MintingStatus == true, \"Minting Function is not working yet, try later. \");\r\n        require(WhiteListMinting == true , \"Whitelisted Minting Is not active now\");\r\n        require(tokenId != 0,\"You can't put 0 for tokenId\");\r\n        if(WhiteListMinting == true){\r\n            require(CheckWhitelistAddress[msg.sender] == true , \"Your address is not allow for mint as whitelisted\");\r\n        }\r\n \r\n        require(RemainingMaxSupply <= MaxSupply, \"Nfts has been null\");\r\n \r\n        if(CheckWhitelistAddress[msg.sender] == true ){\r\n            CirculatingSupply++;\r\n            DoneNFTWhitelistLimit++;\r\n            CheckNftsOnPerWalletAddress[msg.sender]++;\r\n            RemainingMaxSupply = MaxSupply - CirculatingSupply;\r\n            require(CheckNftsOnPerWalletAddress[msg.sender] <= PerWalletLimit, \"Your Wallet Limit Has Been Full\");\r\n            require(DoneNFTWhitelistLimit <= WhitelistLimit , \"Admin limit has been null\");\r\n        }\r\n \r\n        if (bytes(metaDataHash).length != 46) {\r\n            revert InvalidTokenURI();\r\n        }\r\n \r\n        if (bytes(metaDataHash).length != 46) {\r\n            revert InvalidMetadataHash();\r\n        }\r\n \r\n        _safeMint(msg.sender, tokenId);\r\n        _setTokenURI(tokenId, metaDataHash);\r\n        storeNFTInfo[tokenId] = saveNFTinfo(name, metaDataHash);\r\n \r\n        emit NftMinted(msg.sender, tokenId, metaDataHash);\r\n \r\n    }\r\n \r\n    /**\r\n     * @dev publicMinting is used to create a new nft from public address.\r\n     * Requirement:    \r\n     * @param tokenId - nft tokenId\r\n     * @param name - nft name\r\n     * @param metaDataHash - nft metaDataHash\r\n    */\r\n   \r\n    function publicMinting( uint256 tokenId, string memory name, string memory metaDataHash) public {\r\n        require(ForAllFunctions == true,\"Owner have stoped this function for some reason. It will be open later.\");\r\n        require(MintingStatus == true, \"Minting Function is not working yet, try later. \");\r\n        require(PublicSales == true , \"Public Minting Is not active now\");\r\n        require(RemainingMaxSupply <= MaxSupply, \"Nfts has been null\");\r\n        require(tokenId != 0,\"You can't put 0 for tokenId\");\r\n        if(PublicSales == true ){\r\n            CirculatingSupply++;\r\n            DoneNFTPublicLimit++;\r\n            CheckNftsOnPerWalletAddress[msg.sender]++;\r\n            RemainingMaxSupply = MaxSupply - CirculatingSupply;\r\n            require(CheckNftsOnPerWalletAddress[msg.sender] <= PerWalletLimit, \"Your Wallet Limit Has Been Full\");\r\n            require(DoneNFTPublicLimit <= PublicLimit , \"Public Minting limit has been null\");\r\n        }\r\n \r\n        if (bytes(metaDataHash).length != 46) {\r\n            revert InvalidTokenURI();\r\n        }\r\n \r\n        if (bytes(metaDataHash).length != 46) {\r\n            revert InvalidMetadataHash();\r\n        }\r\n \r\n        _safeMint(msg.sender, tokenId);\r\n        _setTokenURI(tokenId, metaDataHash);\r\n        storeNFTInfo[tokenId] = saveNFTinfo(name, metaDataHash);\r\n \r\n        emit NftMinted(msg.sender, tokenId,  metaDataHash);\r\n \r\n    }\r\n \r\n    /**\r\n     * @dev Hook that is called before any (single) token transfer. This includes minting and burning.\r\n     * See {_beforeConsecutiveTokenTransfer}.\r\n     * Calling conditions:\r\n     *\r\n     * - When `from` and `to` are both non-zero, ``from``'s `tokenId` will be\r\n     * transferred to `to`.\r\n     * - When `from` is zero, `tokenId` will be minted for `to`.\r\n     * - When `to` is zero, ``from``'s `tokenId` will be burned.\r\n     * - `from` and `to` are never both zero.\r\n     *\r\n     * To learn\r\n    */\r\n \r\n    function _beforeTokenTransfer(address from, address to, uint256 tokenId)\r\n        internal\r\n        override(ERC721, ERC721Enumerable)\r\n    {\r\n        super._beforeTokenTransfer(from, to, tokenId);\r\n    }\r\n \r\n    /**\r\n     * @dev Destroys `tokenId`.\r\n     * The approval is cleared when the token is burned.\r\n     * This is an internal function that does not check if the sender is authorized to operate on the token.\r\n     *\r\n     * Requirements:\r\n     *\r\n     * - `tokenId` must exist.\r\n     */\r\n \r\n    function _burn(uint256 tokenId) internal override(ERC721, ERC721URIStorage)\r\n    {\r\n        super._burn(tokenId);\r\n    }\r\n \r\n    /**\r\n     * @dev tokenURI is used to get tokenURI link.\r\n     *\r\n     * @param tokenId - ID of nft\r\n     *\r\n     * @return string .\r\n     */\r\n \r\n    function tokenURI(uint256 tokenId)\r\n        public\r\n        view\r\n        override(ERC721, ERC721URIStorage)\r\n        returns (string memory)\r\n    {\r\n        require(ForAllFunctions == true,\"Owner have stoped this function for some reason. It will be open later.\");\r\n        return string(abi.encodePacked(BaseURI, storeNFTInfo[tokenId].MetaDataHash));\r\n    }\r\n \r\n \r\n \r\n    function supportsInterface(bytes4 interfaceId)\r\n        public\r\n        view\r\n        override(ERC721, ERC721Enumerable)\r\n        returns (bool)\r\n    {\r\n        return super.supportsInterface(interfaceId);\r\n    }\r\n}\r\n \r\n \r\n\r\n",
  "sourcePath": "C:\\Users\\fujitsu\\Desktop\\Finalweb3\\contracts\\specialNftContract.sol",
  "compiler": {
    "name": "solc",
    "version": "0.8.4+commit.c7e474f2.Emscripten.clang"
  },
  "schemaVersion": "3.4.9",
  "updatedAt": "2022-09-22T09:21:03.126Z",
  "devdoc": {
    "details": "Implementation of https://eips.ethereum.org/EIPS/eip-721 Non-Fungible Token Standard, including ERC721, ERC721Enumerable , ERC721URIStorage , Ownable",
    "kind": "dev",
    "methods": {
      "ActiveAdminAddress(address)": {
        "details": "ActiveAdminAddress is used to Admin & whitelsit account. Requirement: - This function can only called by owner of the contract",
        "params": {
          "_Address": "- WhitelistAccount to be remove"
        }
      },
      "ActiveAdminMinting()": {
        "details": "ActiveAdminMinting is used to true Admin-Minting, false whitelsit-Minting & false Public-Sales. Requirement: - This function can only called by owner of the contract"
      },
      "ActivePublicSales()": {
        "details": "ActivePublicSales is used to false Admin-Minting, false whitelsit-Minting & true Public-Sales.ActivePublicSales is used to set public limit. Requirement: - This function can only called by owner of the contract"
      },
      "ActiveWhiteListAddress(address)": {
        "details": "ActiveWhiteListAddress is used to Admin & whitelsit account. Requirement: - This function can only called by owner of the contract",
        "params": {
          "_Address": "- AdminAccount to be remove"
        }
      },
      "ActiveWhiteListMinting()": {
        "details": "ActiveWhiteListMinting is used to false Admin-Minting, true whitelsit-Minting & false Public-Sales. Requirement: - This function can only called by owner of the contract"
      },
      "InactiveAdminAddress(address)": {
        "details": "InactiveAdminAddress is used to whitelsit admin account. Requirement: - This function can only called by owner of the contract",
        "params": {
          "_Address": "- AdminAccount to be remove"
        }
      },
      "InactiveWhiteListAddress(address)": {
        "details": "InactiveWhiteListAddress is used to whitelsit admin account. Requirement: - This function can only called by owner of the contract",
        "params": {
          "_Address": "- Whitelist-Account to be remove"
        }
      },
      "PausedAllFunctions()": {
        "details": "UnpausedMintingStatus is used to stop all functions. Requirement: - This function can only called by owner of the Contract"
      },
      "PausedMintingStatus()": {
        "details": "UnpausedMintingStatus is used to stop mintng status. Requirement: - This function can only called by owner of the Contract"
      },
      "UnpausedAllFunctions()": {
        "details": "UnpausedMintingStatus is used to active all functions. Requirement: - This function can only called by owner of the Contract"
      },
      "UnpausedMintingStatus()": {
        "details": "UnpausedMintingStatus is used to active mintng status. Requirement: - This function can only called by owner of the Contract"
      },
      "adminMinting(uint256,string,string)": {
        "details": "adminMinting is used to create a new nft from admin address. Requirement:    ",
        "params": {
          "metaDataHash": "- nft metaDataHash",
          "name": "- nft name",
          "tokenId": "- nft tokenId"
        }
      },
      "approve(address,uint256)": {
        "details": "See {IERC721-approve}."
      },
      "balanceOf(address)": {
        "details": "See {IERC721-balanceOf}."
      },
      "getApproved(uint256)": {
        "details": "See {IERC721-getApproved}."
      },
      "isApprovedForAll(address,address)": {
        "details": "See {IERC721-isApprovedForAll}."
      },
      "name()": {
        "details": "See {IERC721Metadata-name}."
      },
      "owner()": {
        "details": "Returns the address of the current owner."
      },
      "ownerOf(uint256)": {
        "details": "See {IERC721-ownerOf}."
      },
      "publicMinting(uint256,string,string)": {
        "details": "publicMinting is used to create a new nft from public address. Requirement:    ",
        "params": {
          "metaDataHash": "- nft metaDataHash",
          "name": "- nft name",
          "tokenId": "- nft tokenId"
        }
      },
      "renounceOwnership()": {
        "details": "Leaves the contract without owner. It will not be possible to call `onlyOwner` functions anymore. Can only be called by the current owner. NOTE: Renouncing ownership will leave the contract without an owner, thereby removing any functionality that is only available to the owner."
      },
      "safeTransferFrom(address,address,uint256)": {
        "details": "See {IERC721-safeTransferFrom}."
      },
      "safeTransferFrom(address,address,uint256,bytes)": {
        "details": "See {IERC721-safeTransferFrom}."
      },
      "setApprovalForAll(address,bool)": {
        "details": "See {IERC721-setApprovalForAll}."
      },
      "symbol()": {
        "details": "See {IERC721Metadata-symbol}."
      },
      "tokenByIndex(uint256)": {
        "details": "See {IERC721Enumerable-tokenByIndex}."
      },
      "tokenOfOwnerByIndex(address,uint256)": {
        "details": "See {IERC721Enumerable-tokenOfOwnerByIndex}."
      },
      "tokenURI(uint256)": {
        "details": "tokenURI is used to get tokenURI link.",
        "params": {
          "tokenId": "- ID of nft"
        },
        "returns": {
          "_0": "string ."
        }
      },
      "totalSupply()": {
        "details": "See {IERC721Enumerable-totalSupply}."
      },
      "transferFrom(address,address,uint256)": {
        "details": "See {IERC721-transferFrom}."
      },
      "transferOwnership(address)": {
        "details": "Transfers ownership of the contract to a new account (`newOwner`). Can only be called by the current owner."
      },
      "updateBaseURi(string)": {
        "details": "updateBaseURi is used to update the baseUri of Nft. Requirement: - This function can only called by whitelist address of the contract",
        "params": {
          "_BaseURI": "- BaseURI"
        }
      },
      "whitelistMinting(uint256,string,string)": {
        "details": "whitelistMinting is used to create a new nft from whitelist address. Requirement:    ",
        "params": {
          "metaDataHash": "- nft metaDataHash",
          "name": "- nft name",
          "tokenId": "- nft tokenId"
        }
      }
    },
    "version": 1
  },
  "userdoc": {
    "kind": "user",
    "methods": {},
    "version": 1
  }
}